:03000000020056A5
:0C005600787FE4F6D8FD75812002009D43
:10012C00D2FF75D803C2DCC2DB0000000000D2DABB
:10013C000000000000000000000075A2AAC290752B
:10014C00CDF185CDCB75CC9A85CCCAD2CAD2ADD2E5
:02015C00AF22D0
:0100120022CB
:0701BD000108000209000027
:10017C0012012C120012E5F7543F44C0F5F7D2FFE0
:0B018C001200E21201B112001A80F311
:1000E20030010CC2010508050AE50A70020509C3C0
:1000F200E5089405748094804006E4F5081201979F
:10010200C3E50A94E8E50994034007E4F509F50A12
:10011200F50EE50D250EF50EAF0ED3EF9464748047
:0901220094804003D29022C290A7
:01012B0022B1
:01001A0022C3
:0C01B100E50C64017002B200E4F50C22C1
:0901D200300003D29022C29022F9
:0301C400010B002C
:1001970075A2A80000000000209005750B018006DD
:0901A700850B0CE4F50B75A2AA0E
:0101B000222C
:03000300020026D2
:03002600C289325A
:03000B0002002EC2
:03002E00C28D324E
:0300130002003EAA
:03003E00C28B3240
:03001B000200469A
:03004600C28F3234
:03002300020006D2
:05000600C299C298320E
:03002B0002015E71
:10015E00C0E0C0D075D000C007C2CFD201050EAF2F
:0E016E000EEFF47002F50ED007D0D0D0E032C4
:03003B0002000EB2
:04000E005395FE32D6
:03004300020016A2
:040016005395FD32CF
:03004B0002001E92
:04001E005395FB32C9
:030053000201C8DF
:0A01C8005395EF5395DF53AFF73264
:1000620002017CE493A3F8E493A34003F68001F237
:1000720008DFF48029E493A3F85407240CC8C3339F
:10008200C4540F4420C8834004F456800146F6DF6E
:10009200E4800B01020408102040809001BDE47E40
:1000A200019360BCA3FF543F30E509541FFEE49363
:1000B200A360010ECF54C025E060A840B8E493A32A
:1000C200FAE493A3F8E493A3C8C582C8CAC583CA55
:1000D200F0A3C8C582C8CAC583CADFE9DEE780BE0D
:0101C7000037
:00000001FF
