:0300000002003BC0
:0C003B00787FE4F6D8FD75810902008290
:1000C700D2FF75D803C2DCC2DB0000000000D2DA21
:1000D7000000000000000000000075A2A8D290C236
:0200E700912264
:0100300022AD
:100003001200C7120030D2917FF47E011200E9E59D
:10001300F7543F44C0F5F7D2FF12010BE509640121
:090023007002B291E4F50980EECF
:1000E900E4FDFCC3ED9FEC9E5017E4FBFAD2FF0B35
:1000F900BB00010ABA03F6BBE8F30DBD00010C8091
:01010900E213
:01010A0022D2
:03002C00010800C8
:0D010B0020900475080122850809E4F5081C
:0101180022C4
:10004700020003E493A3F8E493A34003F68001F2CC
:1000570008DFF48029E493A3F85407240CC8C333BA
:10006700C4540F4420C8834004F456800146F6DF89
:10007700E4800B010204081020408090002CE47EED
:10008700019360BCA3FF543F30E509541FFEE4937E
:10009700A360010ECF54C025E060A840B8E493A345
:1000A700FAE493A3F8E493A3C8C582C8CAC583CA70
:1000B700F0A3C8C582C8CAC583CADFE9DEE780BE28
:01002F0000D0
:00000001FF
